{
  "contractName": "HealthcareRecordSystem",
  "abi": [
    {
      "inputs": [
        {
          "internalType": "uint256",
          "name": "",
          "type": "uint256"
        }
      ],
      "name": "doctorAddresses",
      "outputs": [
        {
          "internalType": "address",
          "name": "",
          "type": "address"
        }
      ],
      "stateMutability": "view",
      "type": "function",
      "constant": true
    },
    {
      "inputs": [
        {
          "internalType": "address",
          "name": "",
          "type": "address"
        }
      ],
      "name": "doctors",
      "outputs": [
        {
          "internalType": "string",
          "name": "name",
          "type": "string"
        },
        {
          "internalType": "uint256",
          "name": "age",
          "type": "uint256"
        },
        {
          "internalType": "string",
          "name": "specialization",
          "type": "string"
        },
        {
          "internalType": "string",
          "name": "emergencyContact",
          "type": "string"
        }
      ],
      "stateMutability": "view",
      "type": "function",
      "constant": true
    },
    {
      "inputs": [
        {
          "internalType": "uint256",
          "name": "",
          "type": "uint256"
        }
      ],
      "name": "patientAddresses",
      "outputs": [
        {
          "internalType": "address",
          "name": "",
          "type": "address"
        }
      ],
      "stateMutability": "view",
      "type": "function",
      "constant": true
    },
    {
      "inputs": [
        {
          "internalType": "address",
          "name": "",
          "type": "address"
        }
      ],
      "name": "patients",
      "outputs": [
        {
          "internalType": "string",
          "name": "name",
          "type": "string"
        },
        {
          "internalType": "uint256",
          "name": "age",
          "type": "uint256"
        },
        {
          "internalType": "uint256",
          "name": "height",
          "type": "uint256"
        },
        {
          "internalType": "uint256",
          "name": "weight",
          "type": "uint256"
        },
        {
          "internalType": "string",
          "name": "emergencyContact",
          "type": "string"
        }
      ],
      "stateMutability": "view",
      "type": "function",
      "constant": true
    },
    {
      "inputs": [
        {
          "internalType": "string",
          "name": "_name",
          "type": "string"
        },
        {
          "internalType": "uint256",
          "name": "_age",
          "type": "uint256"
        },
        {
          "internalType": "uint256",
          "name": "_height",
          "type": "uint256"
        },
        {
          "internalType": "uint256",
          "name": "_weight",
          "type": "uint256"
        },
        {
          "internalType": "string",
          "name": "_emergencyContact",
          "type": "string"
        },
        {
          "internalType": "string[]",
          "name": "_medicalHistory",
          "type": "string[]"
        }
      ],
      "name": "registerPatient",
      "outputs": [],
      "stateMutability": "nonpayable",
      "type": "function"
    },
    {
      "inputs": [
        {
          "internalType": "string",
          "name": "_name",
          "type": "string"
        },
        {
          "internalType": "uint256",
          "name": "_age",
          "type": "uint256"
        },
        {
          "internalType": "string",
          "name": "_specialization",
          "type": "string"
        },
        {
          "internalType": "string",
          "name": "_emergencyContact",
          "type": "string"
        }
      ],
      "name": "registerDoctor",
      "outputs": [],
      "stateMutability": "nonpayable",
      "type": "function"
    },
    {
      "inputs": [
        {
          "internalType": "string",
          "name": "_record",
          "type": "string"
        }
      ],
      "name": "addMedicalRecord",
      "outputs": [],
      "stateMutability": "nonpayable",
      "type": "function"
    },
    {
      "inputs": [
        {
          "internalType": "address",
          "name": "_patientAddress",
          "type": "address"
        }
      ],
      "name": "getPatient",
      "outputs": [
        {
          "components": [
            {
              "internalType": "string",
              "name": "name",
              "type": "string"
            },
            {
              "internalType": "uint256",
              "name": "age",
              "type": "uint256"
            },
            {
              "internalType": "uint256",
              "name": "height",
              "type": "uint256"
            },
            {
              "internalType": "uint256",
              "name": "weight",
              "type": "uint256"
            },
            {
              "internalType": "string",
              "name": "emergencyContact",
              "type": "string"
            },
            {
              "internalType": "string[]",
              "name": "medicalHistory",
              "type": "string[]"
            }
          ],
          "internalType": "struct HealthcareRecordSystem.Patient",
          "name": "",
          "type": "tuple"
        }
      ],
      "stateMutability": "view",
      "type": "function",
      "constant": true
    },
    {
      "inputs": [
        {
          "internalType": "address",
          "name": "_doctorAddress",
          "type": "address"
        }
      ],
      "name": "getDoctor",
      "outputs": [
        {
          "components": [
            {
              "internalType": "string",
              "name": "name",
              "type": "string"
            },
            {
              "internalType": "uint256",
              "name": "age",
              "type": "uint256"
            },
            {
              "internalType": "string",
              "name": "specialization",
              "type": "string"
            },
            {
              "internalType": "string",
              "name": "emergencyContact",
              "type": "string"
            }
          ],
          "internalType": "struct HealthcareRecordSystem.Doctor",
          "name": "",
          "type": "tuple"
        }
      ],
      "stateMutability": "view",
      "type": "function",
      "constant": true
    },
    {
      "inputs": [],
      "name": "getAllPatients",
      "outputs": [
        {
          "components": [
            {
              "internalType": "string",
              "name": "name",
              "type": "string"
            },
            {
              "internalType": "uint256",
              "name": "age",
              "type": "uint256"
            },
            {
              "internalType": "uint256",
              "name": "height",
              "type": "uint256"
            },
            {
              "internalType": "uint256",
              "name": "weight",
              "type": "uint256"
            },
            {
              "internalType": "string",
              "name": "emergencyContact",
              "type": "string"
            },
            {
              "internalType": "string[]",
              "name": "medicalHistory",
              "type": "string[]"
            }
          ],
          "internalType": "struct HealthcareRecordSystem.Patient[]",
          "name": "",
          "type": "tuple[]"
        }
      ],
      "stateMutability": "view",
      "type": "function",
      "constant": true
    },
    {
      "inputs": [],
      "name": "getAllDoctors",
      "outputs": [
        {
          "components": [
            {
              "internalType": "string",
              "name": "name",
              "type": "string"
            },
            {
              "internalType": "uint256",
              "name": "age",
              "type": "uint256"
            },
            {
              "internalType": "string",
              "name": "specialization",
              "type": "string"
            },
            {
              "internalType": "string",
              "name": "emergencyContact",
              "type": "string"
            }
          ],
          "internalType": "struct HealthcareRecordSystem.Doctor[]",
          "name": "",
          "type": "tuple[]"
        }
      ],
      "stateMutability": "view",
      "type": "function",
      "constant": true
    }
  ],
  "bytecode": "0x608060405234801561001057600080fd5b5061221a806100206000396000f3fe608060405234801561001057600080fd5b50600436106100a95760003560e01c8063b40f169111610071578063b40f169114610193578063b5368e20146101c3578063c8d1d569146101f3578063cbec91ee1461020f578063e671926a1461022b578063f0d9509014610247576100a9565b80630869cfbc146100ae57806318a231a9146100e25780632f04e064146101005780633ba51e7c14610130578063a9583c2214610160575b600080fd5b6100c860048036038101906100c39190611665565b610265565b6040516100d9959493929190611da7565b60405180910390f35b6100ea6103ab565b6040516100f79190611d2b565b60405180910390f35b61011a60048036038101906101159190611665565b6106f5565b6040516101279190611e08565b60405180910390f35b61014a60048036038101906101459190611877565b61090e565b6040516101579190611cee565b60405180910390f35b61017a60048036038101906101759190611665565b61094d565b60405161018a9493929190611d4d565b60405180910390f35b6101ad60048036038101906101a89190611877565b610b15565b6040516101ba9190611cee565b60405180910390f35b6101dd60048036038101906101d89190611665565b610b54565b6040516101ea9190611e2a565b60405180910390f35b61020d60048036038101906102089190611796565b610dc7565b005b610229600480360381019061022491906116db565b610edb565b005b61024560048036038101906102409190611692565b610fdc565b005b61024f61105a565b60405161025c9190611d09565b60405180910390f35b600060205280600052604060002060009150905080600001805461028890612024565b80601f01602080910402602001604051908101604052809291908181526020018280546102b490612024565b80156103015780601f106102d657610100808354040283529160200191610301565b820191906000526020600020905b8154815290600101906020018083116102e457829003601f168201915b50505050509080600101549080600201549080600301549080600401805461032890612024565b80601f016020809104026020016040519081016040528092919081815260200182805461035490612024565b80156103a15780601f10610376576101008083540402835291602001916103a1565b820191906000526020600020905b81548152906001019060200180831161038457829003601f168201915b5050505050905085565b6060600060028054905067ffffffffffffffff8111156103ce576103cd61215d565b5b60405190808252806020026020018201604052801561040757816020015b6103f461134a565b8152602001906001900390816103ec5790505b50905060005b6002805490508110156106ed57600080600283815481106104315761043061212e565b5b9060005260206000200160009054906101000a900473ffffffffffffffffffffffffffffffffffffffff1673ffffffffffffffffffffffffffffffffffffffff1673ffffffffffffffffffffffffffffffffffffffff1681526020019081526020016000206040518060c00160405290816000820180546104b190612024565b80601f01602080910402602001604051908101604052809291908181526020018280546104dd90612024565b801561052a5780601f106104ff5761010080835404028352916020019161052a565b820191906000526020600020905b81548152906001019060200180831161050d57829003601f168201915b5050505050815260200160018201548152602001600282015481526020016003820154815260200160048201805461056190612024565b80601f016020809104026020016040519081016040528092919081815260200182805461058d90612024565b80156105da5780601f106105af576101008083540402835291602001916105da565b820191906000526020600020905b8154815290600101906020018083116105bd57829003601f168201915b5050505050815260200160058201805480602002602001604051908101604052809291908181526020016000905b828210156106b457838290600052602060002001805461062790612024565b80601f016020809104026020016040519081016040528092919081815260200182805461065390612024565b80156106a05780601f10610675576101008083540402835291602001916106a0565b820191906000526020600020905b81548152906001019060200180831161068357829003601f168201915b505050505081526020019060010190610608565b50505050815250508282815181106106cf576106ce61212e565b5b602002602001018190525080806106e590612087565b91505061040d565b508091505090565b6106fd611380565b600160008373ffffffffffffffffffffffffffffffffffffffff1673ffffffffffffffffffffffffffffffffffffffff16815260200190815260200160002060405180608001604052908160008201805461075790612024565b80601f016020809104026020016040519081016040528092919081815260200182805461078390612024565b80156107d05780601f106107a5576101008083540402835291602001916107d0565b820191906000526020600020905b8154815290600101906020018083116107b357829003601f168201915b50505050508152602001600182015481526020016002820180546107f390612024565b80601f016020809104026020016040519081016040528092919081815260200182805461081f90612024565b801561086c5780601f106108415761010080835404028352916020019161086c565b820191906000526020600020905b81548152906001019060200180831161084f57829003601f168201915b5050505050815260200160038201805461088590612024565b80601f01602080910402602001604051908101604052809291908181526020018280546108b190612024565b80156108fe5780601f106108d3576101008083540402835291602001916108fe565b820191906000526020600020905b8154815290600101906020018083116108e157829003601f168201915b5050505050815250509050919050565b6003818154811061091e57600080fd5b906000526020600020016000915054906101000a900473ffffffffffffffffffffffffffffffffffffffff1681565b600160205280600052604060002060009150905080600001805461097090612024565b80601f016020809104026020016040519081016040528092919081815260200182805461099c90612024565b80156109e95780601f106109be576101008083540402835291602001916109e9565b820191906000526020600020905b8154815290600101906020018083116109cc57829003601f168201915b505050505090806001015490806002018054610a0490612024565b80601f0160208091040260200160405190810160405280929190818152602001828054610a3090612024565b8015610a7d5780601f10610a5257610100808354040283529160200191610a7d565b820191906000526020600020905b815481529060010190602001808311610a6057829003601f168201915b505050505090806003018054610a9290612024565b80601f0160208091040260200160405190810160405280929190818152602001828054610abe90612024565b8015610b0b5780601f10610ae057610100808354040283529160200191610b0b565b820191906000526020600020905b815481529060010190602001808311610aee57829003601f168201915b5050505050905084565b60028181548110610b2557600080fd5b906000526020600020016000915054906101000a900473ffffffffffffffffffffffffffffffffffffffff1681565b610b5c61134a565b6000808373ffffffffffffffffffffffffffffffffffffffff1673ffffffffffffffffffffffffffffffffffffffff1681526020019081526020016000206040518060c0016040529081600082018054610bb590612024565b80601f0160208091040260200160405190810160405280929190818152602001828054610be190612024565b8015610c2e5780601f10610c0357610100808354040283529160200191610c2e565b820191906000526020600020905b815481529060010190602001808311610c1157829003601f168201915b50505050508152602001600182015481526020016002820154815260200160038201548152602001600482018054610c6590612024565b80601f0160208091040260200160405190810160405280929190818152602001828054610c9190612024565b8015610cde5780601f10610cb357610100808354040283529160200191610cde565b820191906000526020600020905b815481529060010190602001808311610cc157829003601f168201915b5050505050815260200160058201805480602002602001604051908101604052809291908181526020016000905b82821015610db8578382906000526020600020018054610d2b90612024565b80601f0160208091040260200160405190810160405280929190818152602001828054610d5790612024565b8015610da45780601f10610d7957610100808354040283529160200191610da4565b820191906000526020600020905b815481529060010190602001808311610d8757829003601f168201915b505050505081526020019060010190610d0c565b50505050815250509050919050565b60008060003373ffffffffffffffffffffffffffffffffffffffff1673ffffffffffffffffffffffffffffffffffffffff168152602001908152602001600020905086816000019080519060200190610e219291906113a8565b5085816001018190555084816002018190555083816003018190555082816004019080519060200190610e559291906113a8565b5081816005019080519060200190610e6e92919061142e565b506002339080600181540180825580915050600190039060005260206000200160009091909190916101000a81548173ffffffffffffffffffffffffffffffffffffffff021916908373ffffffffffffffffffffffffffffffffffffffff16021790555050505050505050565b6000600160003373ffffffffffffffffffffffffffffffffffffffff1673ffffffffffffffffffffffffffffffffffffffff168152602001908152602001600020905084816000019080519060200190610f369291906113a8565b5083816001018190555082816002019080519060200190610f589291906113a8565b5081816003019080519060200190610f719291906113a8565b506003339080600181540180825580915050600190039060005260206000200160009091909190916101000a81548173ffffffffffffffffffffffffffffffffffffffff021916908373ffffffffffffffffffffffffffffffffffffffff1602179055505050505050565b6000803373ffffffffffffffffffffffffffffffffffffffff1673ffffffffffffffffffffffffffffffffffffffff168152602001908152602001600020600501819080600181540180825580915050600190039060005260206000200160009091909190915090805190602001906110569291906113a8565b5050565b6060600060038054905067ffffffffffffffff81111561107d5761107c61215d565b5b6040519080825280602002602001820160405280156110b657816020015b6110a3611380565b81526020019060019003908161109b5790505b50905060005b6003805490508110156113425760016000600383815481106110e1576110e061212e565b5b9060005260206000200160009054906101000a900473ffffffffffffffffffffffffffffffffffffffff1673ffffffffffffffffffffffffffffffffffffffff1673ffffffffffffffffffffffffffffffffffffffff16815260200190815260200160002060405180608001604052908160008201805461116190612024565b80601f016020809104026020016040519081016040528092919081815260200182805461118d90612024565b80156111da5780601f106111af576101008083540402835291602001916111da565b820191906000526020600020905b8154815290600101906020018083116111bd57829003601f168201915b50505050508152602001600182015481526020016002820180546111fd90612024565b80601f016020809104026020016040519081016040528092919081815260200182805461122990612024565b80156112765780601f1061124b57610100808354040283529160200191611276565b820191906000526020600020905b81548152906001019060200180831161125957829003601f168201915b5050505050815260200160038201805461128f90612024565b80601f01602080910402602001604051908101604052809291908181526020018280546112bb90612024565b80156113085780601f106112dd57610100808354040283529160200191611308565b820191906000526020600020905b8154815290600101906020018083116112eb57829003601f168201915b5050505050815250508282815181106113245761132361212e565b5b6020026020010181905250808061133a90612087565b9150506110bc565b508091505090565b6040518060c001604052806060815260200160008152602001600081526020016000815260200160608152602001606081525090565b6040518060800160405280606081526020016000815260200160608152602001606081525090565b8280546113b490612024565b90600052602060002090601f0160209004810192826113d6576000855561141d565b82601f106113ef57805160ff191683800117855561141d565b8280016001018555821561141d579182015b8281111561141c578251825591602001919060010190611401565b5b50905061142a919061148e565b5090565b82805482825590600052602060002090810192821561147d579160200282015b8281111561147c57825182908051906020019061146c9291906113a8565b509160200191906001019061144e565b5b50905061148a91906114ab565b5090565b5b808211156114a757600081600090555060010161148f565b5090565b5b808211156114cb57600081816114c291906114cf565b506001016114ac565b5090565b5080546114db90612024565b6000825580601f106114ed575061150c565b601f01602090049060005260206000209081019061150b919061148e565b5b50565b600061152261151d84611e71565b611e4c565b9050808382526020820190508285602086028201111561154557611544612191565b5b60005b8581101561159357813567ffffffffffffffff81111561156b5761156a61218c565b5b8086016115788982611622565b85526020850194506020840193505050600181019050611548565b5050509392505050565b60006115b06115ab84611e9d565b611e4c565b9050828152602081018484840111156115cc576115cb612196565b5b6115d7848285611fe2565b509392505050565b6000813590506115ee816121b6565b92915050565b600082601f8301126116095761160861218c565b5b813561161984826020860161150f565b91505092915050565b600082601f8301126116375761163661218c565b5b813561164784826020860161159d565b91505092915050565b60008135905061165f816121cd565b92915050565b60006020828403121561167b5761167a6121a0565b5b6000611689848285016115df565b91505092915050565b6000602082840312156116a8576116a76121a0565b5b600082013567ffffffffffffffff8111156116c6576116c561219b565b5b6116d284828501611622565b91505092915050565b600080600080608085870312156116f5576116f46121a0565b5b600085013567ffffffffffffffff8111156117135761171261219b565b5b61171f87828801611622565b945050602061173087828801611650565b935050604085013567ffffffffffffffff8111156117515761175061219b565b5b61175d87828801611622565b925050606085013567ffffffffffffffff81111561177e5761177d61219b565b5b61178a87828801611622565b91505092959194509250565b60008060008060008060c087890312156117b3576117b26121a0565b5b600087013567ffffffffffffffff8111156117d1576117d061219b565b5b6117dd89828a01611622565b96505060206117ee89828a01611650565b95505060406117ff89828a01611650565b945050606061181089828a01611650565b935050608087013567ffffffffffffffff8111156118315761183061219b565b5b61183d89828a01611622565b92505060a087013567ffffffffffffffff81111561185e5761185d61219b565b5b61186a89828a016115f4565b9150509295509295509295565b60006020828403121561188d5761188c6121a0565b5b600061189b84828501611650565b91505092915050565b60006118b08383611a4e565b905092915050565b60006118c48383611ac0565b905092915050565b60006118d88383611ba2565b905092915050565b6118e981611fa6565b82525050565b60006118fa82611efe565b6119048185611f51565b93508360208202850161191685611ece565b8060005b85811015611952578484038952815161193385826118a4565b945061193e83611f2a565b925060208a0199505060018101905061191a565b50829750879550505050505092915050565b600061196f82611f09565b6119798185611f62565b93508360208202850161198b85611ede565b8060005b858110156119c757848403895281516119a885826118b8565b94506119b383611f37565b925060208a0199505060018101905061198f565b50829750879550505050505092915050565b60006119e482611f14565b6119ee8185611f73565b935083602082028501611a0085611eee565b8060005b85811015611a3c5784840389528151611a1d85826118cc565b9450611a2883611f44565b925060208a01995050600181019050611a04565b50829750879550505050505092915050565b6000611a5982611f1f565b611a638185611f84565b9350611a73818560208601611ff1565b611a7c816121a5565b840191505092915050565b6000611a9282611f1f565b611a9c8185611f95565b9350611aac818560208601611ff1565b611ab5816121a5565b840191505092915050565b60006080830160008301518482036000860152611add8282611a4e565b9150506020830151611af26020860182611cd0565b5060408301518482036040860152611b0a8282611a4e565b91505060608301518482036060860152611b248282611a4e565b9150508091505092915050565b60006080830160008301518482036000860152611b4e8282611a4e565b9150506020830151611b636020860182611cd0565b5060408301518482036040860152611b7b8282611a4e565b91505060608301518482036060860152611b958282611a4e565b9150508091505092915050565b600060c0830160008301518482036000860152611bbf8282611a4e565b9150506020830151611bd46020860182611cd0565b506040830151611be76040860182611cd0565b506060830151611bfa6060860182611cd0565b5060808301518482036080860152611c128282611a4e565b91505060a083015184820360a0860152611c2c82826118ef565b9150508091505092915050565b600060c0830160008301518482036000860152611c568282611a4e565b9150506020830151611c6b6020860182611cd0565b506040830151611c7e6040860182611cd0565b506060830151611c916060860182611cd0565b5060808301518482036080860152611ca98282611a4e565b91505060a083015184820360a0860152611cc382826118ef565b9150508091505092915050565b611cd981611fd8565b82525050565b611ce881611fd8565b82525050565b6000602082019050611d0360008301846118e0565b92915050565b60006020820190508181036000830152611d238184611964565b905092915050565b60006020820190508181036000830152611d4581846119d9565b905092915050565b60006080820190508181036000830152611d678187611a87565b9050611d766020830186611cdf565b8181036040830152611d888185611a87565b90508181036060830152611d9c8184611a87565b905095945050505050565b600060a0820190508181036000830152611dc18188611a87565b9050611dd06020830187611cdf565b611ddd6040830186611cdf565b611dea6060830185611cdf565b8181036080830152611dfc8184611a87565b90509695505050505050565b60006020820190508181036000830152611e228184611b31565b905092915050565b60006020820190508181036000830152611e448184611c39565b905092915050565b6000611e56611e67565b9050611e628282612056565b919050565b6000604051905090565b600067ffffffffffffffff821115611e8c57611e8b61215d565b5b602082029050602081019050919050565b600067ffffffffffffffff821115611eb857611eb761215d565b5b611ec1826121a5565b9050602081019050919050565b6000819050602082019050919050565b6000819050602082019050919050565b6000819050602082019050919050565b600081519050919050565b600081519050919050565b600081519050919050565b600081519050919050565b6000602082019050919050565b6000602082019050919050565b6000602082019050919050565b600082825260208201905092915050565b600082825260208201905092915050565b600082825260208201905092915050565b600082825260208201905092915050565b600082825260208201905092915050565b6000611fb182611fb8565b9050919050565b600073ffffffffffffffffffffffffffffffffffffffff82169050919050565b6000819050919050565b82818337600083830152505050565b60005b8381101561200f578082015181840152602081019050611ff4565b8381111561201e576000848401525b50505050565b6000600282049050600182168061203c57607f821691505b602082108114156120505761204f6120ff565b5b50919050565b61205f826121a5565b810181811067ffffffffffffffff8211171561207e5761207d61215d565b5b80604052505050565b600061209282611fd8565b91507fffffffffffffffffffffffffffffffffffffffffffffffffffffffffffffffff8214156120c5576120c46120d0565b5b600182019050919050565b7f4e487b7100000000000000000000000000000000000000000000000000000000600052601160045260246000fd5b7f4e487b7100000000000000000000000000000000000000000000000000000000600052602260045260246000fd5b7f4e487b7100000000000000000000000000000000000000000000000000000000600052603260045260246000fd5b7f4e487b7100000000000000000000000000000000000000000000000000000000600052604160045260246000fd5b600080fd5b600080fd5b600080fd5b600080fd5b600080fd5b6000601f19601f8301169050919050565b6121bf81611fa6565b81146121ca57600080fd5b50565b6121d681611fd8565b81146121e157600080fd5b5056fea2646970667358221220789a22cd2bc20b75e4e8c3ad164e85b98becdec683fd04e32b7b08194d8bac3564736f6c63430008070033",
  "immutableReferences": {},
  "source": "// SPDX-License-Identifier: MIT\r\npragma solidity ^0.8.0;\r\n\r\ncontract HealthcareRecordSystem {\r\n    struct Patient {\r\n        string name;\r\n        uint age;\r\n        uint height;\r\n        uint weight;\r\n        string emergencyContact;\r\n        string[] medicalHistory;\r\n    }\r\n\r\n    struct Doctor {\r\n        string name;\r\n        uint age;\r\n        string specialization;\r\n        string emergencyContact;\r\n    }\r\n\r\n    mapping(address => Patient) public patients;\r\n    mapping(address => Doctor) public doctors;\r\n    address[] public patientAddresses;\r\n    address[] public doctorAddresses;\r\n\r\n    function registerPatient(\r\n        string memory _name,\r\n        uint _age,\r\n        uint _height,\r\n        uint _weight,\r\n        string memory _emergencyContact,\r\n        string[] memory _medicalHistory\r\n    ) public {\r\n        Patient storage patient = patients[msg.sender];\r\n        patient.name = _name;\r\n        patient.age = _age;\r\n        patient.height = _height;\r\n        patient.weight = _weight;\r\n        patient.emergencyContact = _emergencyContact;\r\n        patient.medicalHistory = _medicalHistory;\r\n        patientAddresses.push(msg.sender);\r\n    }\r\n\r\n    function registerDoctor(\r\n        string memory _name,\r\n        uint _age,\r\n        string memory _specialization,\r\n        string memory _emergencyContact\r\n    ) public {\r\n        Doctor storage doctor = doctors[msg.sender];\r\n        doctor.name = _name;\r\n        doctor.age = _age;\r\n        doctor.specialization = _specialization;\r\n        doctor.emergencyContact = _emergencyContact;\r\n        doctorAddresses.push(msg.sender);\r\n    }\r\n\r\n    function addMedicalRecord(string memory _record) public {\r\n        patients[msg.sender].medicalHistory.push(_record);\r\n    }\r\n\r\n    function getPatient(address _patientAddress) public view returns (Patient memory) {\r\n        return patients[_patientAddress];\r\n    }\r\n\r\n    function getDoctor(address _doctorAddress) public view returns (Doctor memory) {\r\n        return doctors[_doctorAddress];\r\n    }\r\n\r\n    function getAllPatients() public view returns (Patient[] memory) {\r\n        Patient[] memory result = new Patient[](patientAddresses.length);\r\n        for (uint i = 0; i < patientAddresses.length; i++) {\r\n            result[i] = patients[patientAddresses[i]];\r\n        }\r\n        return result;\r\n    }\r\n\r\n    function getAllDoctors() public view returns (Doctor[] memory) {\r\n        Doctor[] memory result = new Doctor[](doctorAddresses.length);\r\n        for (uint i = 0; i < doctorAddresses.length; i++) {\r\n            result[i] = doctors[doctorAddresses[i]];\r\n        }\r\n        return result;\r\n    }\r\n}\r\n\r\n\r\n\r\n\r\n\r\n\r\n\r\n// pragma solidity ^0.8.0;\r\n\r\n// contract HealthcareRecordSystem {\r\n//     // Structure to represent a patient\r\n//     struct Patient {\r\n//         string name;\r\n//         address walletAddress;\r\n//         uint256[] medicalRecords;\r\n//     }\r\n\r\n//     // Structure to represent a doctor\r\n//     struct Doctor {\r\n//         string name;\r\n//         address walletAddress;\r\n//     }\r\n\r\n//     // Structure to represent a medical record\r\n//     struct MedicalRecord {\r\n//         uint256 recordId;\r\n//         string details;\r\n//         uint256 timestamp;\r\n//         address patientAddress;\r\n//         address doctorAddress;\r\n//     }\r\n\r\n//     // Mapping of patient addresses to patient information\r\n//     mapping(address => Patient) public patients;\r\n\r\n//     // Mapping of doctor addresses to doctor information\r\n//     mapping(address => Doctor) public doctors;\r\n\r\n//     // Mapping of record IDs to medical record information\r\n//     mapping(uint256 => MedicalRecord) public medicalRecords;\r\n\r\n//     // Events to log important contract actions\r\n//     event PatientRegistered(address indexed patientAddress, string name);\r\n//     event DoctorRegistered(address indexed doctorAddress, string name);\r\n//     event MedicalRecordAdded(uint256 indexed recordId, address indexed patientAddress, address indexed doctorAddress, string details);\r\n\r\n//     // Function to register a new patient\r\n//     function registerPatient(string memory _name) public {\r\n//         require(bytes(_name).length > 0, \"Name must not be empty\");\r\n//         require(patients[msg.sender].walletAddress != msg.sender, \"Patient already registered\");\r\n\r\n//         Patient memory newPatient = Patient({\r\n//             name: _name,\r\n//             walletAddress: msg.sender,\r\n//             medicalRecords: new uint256[](0)  // Initialize an empty array\r\n//         });\r\n\r\n//         patients[msg.sender] = newPatient;\r\n\r\n//         emit PatientRegistered(msg.sender, _name);\r\n//     }\r\n\r\n//     // Function to register a new doctor\r\n//     function registerDoctor(string memory _name) public {\r\n//         require(bytes(_name).length > 0, \"Name must not be empty\");\r\n//         require(doctors[msg.sender].walletAddress != msg.sender, \"Doctor already registered\");\r\n\r\n//         Doctor memory newDoctor = Doctor({\r\n//             name: _name,\r\n//             walletAddress: msg.sender\r\n//         });\r\n\r\n//         doctors[msg.sender] = newDoctor;\r\n\r\n//         emit DoctorRegistered(msg.sender, _name);\r\n//     }\r\n\r\n//     // Function to add a new medical record\r\n//     function addMedicalRecord(uint256 _recordId, string memory _details, address _doctorAddress) public {\r\n//         require(bytes(_details).length > 0, \"Details must not be empty\");\r\n//         require(patients[msg.sender].walletAddress == msg.sender, \"Only patients can add medical records\");\r\n//         require(doctors[_doctorAddress].walletAddress == _doctorAddress, \"Invalid doctor address\");\r\n\r\n//         MedicalRecord memory newRecord = MedicalRecord({\r\n//             recordId: _recordId,\r\n//             details: _details,\r\n//             timestamp: block.timestamp,\r\n//             patientAddress: msg.sender,\r\n//             doctorAddress: _doctorAddress\r\n//         });\r\n\r\n//         patients[msg.sender].medicalRecords.push(_recordId);\r\n//         medicalRecords[_recordId] = newRecord;\r\n\r\n//         emit MedicalRecordAdded(_recordId, msg.sender, _doctorAddress, _details);\r\n//     }\r\n// }\r\n\r\n\r\n\r\n\r\n\r\n\r\n",
  "sourcePath": "C:\\Users\\anidh\\OneDrive\\Desktop\\blockchain\\New folder\\New folder\\healthcare_system_2\\truffle\\contracts\\HealthcareRecordSystem.sol",
  "compiler": {
    "name": "solc",
    "version": "0.8.7+commit.e28d00a7.Emscripten.clang"
  },
  "schemaVersion": "3.4.16",
  "updatedAt": "2024-06-04T11:42:33.807Z",
  "networkType": "ethereum",
  "devdoc": {
    "kind": "dev",
    "methods": {},
    "version": 1
  },
  "userdoc": {
    "kind": "user",
    "methods": {},
    "version": 1
  }
}